{
  "contractName": "User",
  "abi": [
    {
      "constant": true,
      "inputs": [],
      "name": "getUsers",
      "outputs": [
        {
          "name": "",
          "type": "address[]"
        }
      ],
      "payable": false,
      "stateMutability": "view",
      "type": "function"
    },
    {
      "constant": false,
      "inputs": [
        {
          "name": "_complaintByAadhar",
          "type": "uint256"
        },
        {
          "name": "_complaint_txt",
          "type": "bytes16"
        }
      ],
      "name": "setComplaint",
      "outputs": [
        {
          "name": "",
          "type": "address"
        }
      ],
      "payable": false,
      "stateMutability": "nonpayable",
      "type": "function"
    },
    {
      "constant": true,
      "inputs": [
        {
          "name": "_verifier_aadhar",
          "type": "uint256"
        },
        {
          "name": "_complainter_aadhar",
          "type": "uint256"
        },
        {
          "name": "complaintKey",
          "type": "uint256"
        }
      ],
      "name": "verifyComplaint",
      "outputs": [
        {
          "name": "",
          "type": "uint256"
        }
      ],
      "payable": false,
      "stateMutability": "view",
      "type": "function"
    },
    {
      "constant": true,
      "inputs": [
        {
          "name": "_address",
          "type": "address"
        }
      ],
      "name": "getComplaintCountByAddress",
      "outputs": [
        {
          "name": "",
          "type": "uint256"
        }
      ],
      "payable": false,
      "stateMutability": "view",
      "type": "function"
    },
    {
      "constant": true,
      "inputs": [
        {
          "name": "aadhar_no",
          "type": "uint256"
        },
        {
          "name": "feedbackKey",
          "type": "uint256"
        }
      ],
      "name": "getUserFeedbackAtIndex",
      "outputs": [
        {
          "name": "",
          "type": "uint256"
        },
        {
          "name": "",
          "type": "uint256"
        },
        {
          "name": "",
          "type": "uint256"
        },
        {
          "name": "",
          "type": "bytes16"
        }
      ],
      "payable": false,
      "stateMutability": "view",
      "type": "function"
    },
    {
      "constant": true,
      "inputs": [
        {
          "name": "_address",
          "type": "address"
        }
      ],
      "name": "getUserFeedbackCount",
      "outputs": [
        {
          "name": "",
          "type": "uint256"
        }
      ],
      "payable": false,
      "stateMutability": "view",
      "type": "function"
    },
    {
      "constant": true,
      "inputs": [
        {
          "name": "",
          "type": "uint256"
        }
      ],
      "name": "userAccounts",
      "outputs": [
        {
          "name": "",
          "type": "address"
        }
      ],
      "payable": false,
      "stateMutability": "view",
      "type": "function"
    },
    {
      "constant": true,
      "inputs": [
        {
          "name": "_address",
          "type": "address"
        }
      ],
      "name": "getUser",
      "outputs": [
        {
          "name": "",
          "type": "uint256"
        },
        {
          "name": "",
          "type": "bool"
        },
        {
          "name": "",
          "type": "bytes16"
        }
      ],
      "payable": false,
      "stateMutability": "view",
      "type": "function"
    },
    {
      "constant": true,
      "inputs": [
        {
          "name": "_address",
          "type": "address"
        },
        {
          "name": "complaintKey",
          "type": "uint256"
        }
      ],
      "name": "getUserComplaintAtIndex",
      "outputs": [
        {
          "name": "",
          "type": "uint256"
        },
        {
          "name": "",
          "type": "uint256"
        },
        {
          "name": "",
          "type": "bytes16"
        }
      ],
      "payable": false,
      "stateMutability": "view",
      "type": "function"
    },
    {
      "constant": true,
      "inputs": [
        {
          "name": "_aadhar",
          "type": "uint256"
        }
      ],
      "name": "searchUserByAadhar",
      "outputs": [
        {
          "name": "",
          "type": "address"
        }
      ],
      "payable": false,
      "stateMutability": "view",
      "type": "function"
    },
    {
      "constant": true,
      "inputs": [
        {
          "name": "",
          "type": "uint256"
        }
      ],
      "name": "aadharRecord",
      "outputs": [
        {
          "name": "",
          "type": "address"
        }
      ],
      "payable": false,
      "stateMutability": "view",
      "type": "function"
    },
    {
      "constant": false,
      "inputs": [
        {
          "name": "_address",
          "type": "address"
        },
        {
          "name": "_aadhar_no",
          "type": "uint256"
        },
        {
          "name": "_isMigrant",
          "type": "bool"
        },
        {
          "name": "_name",
          "type": "bytes16"
        }
      ],
      "name": "setUser",
      "outputs": [
        {
          "name": "",
          "type": "address"
        }
      ],
      "payable": false,
      "stateMutability": "nonpayable",
      "type": "function"
    },
    {
      "constant": false,
      "inputs": [
        {
          "name": "_rating",
          "type": "uint256"
        },
        {
          "name": "_sender_aadhar",
          "type": "uint256"
        },
        {
          "name": "_receiver_aadhar",
          "type": "uint256"
        },
        {
          "name": "_feedback",
          "type": "bytes16"
        }
      ],
      "name": "setFeedback",
      "outputs": [
        {
          "name": "",
          "type": "address"
        }
      ],
      "payable": false,
      "stateMutability": "nonpayable",
      "type": "function"
    },
    {
      "anonymous": false,
      "inputs": [
        {
          "indexed": false,
          "name": "aadhar_no",
          "type": "uint256"
        },
        {
          "indexed": false,
          "name": "isMigrant",
          "type": "bool"
        },
        {
          "indexed": false,
          "name": "name",
          "type": "bytes16"
        }
      ],
      "name": "personInfo",
      "type": "event"
    },
    {
      "anonymous": false,
      "inputs": [
        {
          "indexed": false,
          "name": "rating",
          "type": "uint256"
        },
        {
          "indexed": false,
          "name": "sender_aadhar",
          "type": "uint256"
        },
        {
          "indexed": false,
          "name": "receiver_aadhar",
          "type": "uint256"
        },
        {
          "indexed": false,
          "name": "feedback_txt",
          "type": "bytes16"
        }
      ],
      "name": "feedBackInfo",
      "type": "event"
    }
  ],
  "bytecode": "0x6060604052341561000f57600080fd5b6114c48061001e6000396000f3006060604052600436106100c4576000357c0100000000000000000000000000000000000000000000000000000000900463ffffffff168062ce8e3e146100c95780630bf83db51461013357806320a886c6146101b25780632afff31f146101fb57806347ccb934146102485780635ee2c93e146102c3578063616d5058146103105780636f77926b146103735780638177777e146103f857806386e2587d146104825780639597fe7d146104e5578063a3b887bd14610548578063b5fce8db146105f1575b600080fd5b34156100d457600080fd5b6100dc610682565b6040518080602001828103825283818151815260200191508051906020019060200280838360005b8381101561011f578082015181840152602081019050610104565b505050509050019250505060405180910390f35b341561013e57600080fd5b61017060048080359060200190919080356fffffffffffffffffffffffffffffffff1916906020019091905050610716565b604051808273ffffffffffffffffffffffffffffffffffffffff1673ffffffffffffffffffffffffffffffffffffffff16815260200191505060405180910390f35b34156101bd57600080fd5b6101e56004808035906020019091908035906020019091908035906020019091905050610850565b6040518082815260200191505060405180910390f35b341561020657600080fd5b610232600480803573ffffffffffffffffffffffffffffffffffffffff169060200190919050506108f2565b6040518082815260200191505060405180910390f35b341561025357600080fd5b6102726004808035906020019091908035906020019091905050610940565b60405180858152602001848152602001838152602001826fffffffffffffffffffffffffffffffff19166fffffffffffffffffffffffffffffffff1916815260200194505050505060405180910390f35b34156102ce57600080fd5b6102fa600480803573ffffffffffffffffffffffffffffffffffffffff16906020019091905050610b02565b6040518082815260200191505060405180910390f35b341561031b57600080fd5b6103316004808035906020019091905050610b50565b604051808273ffffffffffffffffffffffffffffffffffffffff1673ffffffffffffffffffffffffffffffffffffffff16815260200191505060405180910390f35b341561037e57600080fd5b6103aa600480803573ffffffffffffffffffffffffffffffffffffffff16906020019091905050610b8f565b6040518084815260200183151515158152602001826fffffffffffffffffffffffffffffffff19166fffffffffffffffffffffffffffffffff19168152602001935050505060405180910390f35b341561040357600080fd5b610438600480803573ffffffffffffffffffffffffffffffffffffffff16906020019091908035906020019091905050610c91565b60405180848152602001838152602001826fffffffffffffffffffffffffffffffff19166fffffffffffffffffffffffffffffffff19168152602001935050505060405180910390f35b341561048d57600080fd5b6104a36004808035906020019091905050610de8565b604051808273ffffffffffffffffffffffffffffffffffffffff1673ffffffffffffffffffffffffffffffffffffffff16815260200191505060405180910390f35b34156104f057600080fd5b6105066004808035906020019091905050610e2a565b604051808273ffffffffffffffffffffffffffffffffffffffff1673ffffffffffffffffffffffffffffffffffffffff16815260200191505060405180910390f35b341561055357600080fd5b6105af600480803573ffffffffffffffffffffffffffffffffffffffff1690602001909190803590602001909190803515159060200190919080356fffffffffffffffffffffffffffffffff1916906020019091905050610e5d565b604051808273ffffffffffffffffffffffffffffffffffffffff1673ffffffffffffffffffffffffffffffffffffffff16815260200191505060405180910390f35b34156105fc57600080fd5b61064060048080359060200190919080359060200190919080359060200190919080356fffffffffffffffffffffffffffffffff191690602001909190505061103a565b604051808273ffffffffffffffffffffffffffffffffffffffff1673ffffffffffffffffffffffffffffffffffffffff16815260200191505060405180910390f35b61068a6111f6565b600180548060200260200160405190810160405280929190818152602001828054801561070c57602002820191906000526020600020905b8160009054906101000a900473ffffffffffffffffffffffffffffffffffffffff1673ffffffffffffffffffffffffffffffffffffffff16815260200190600101908083116106c2575b5050505050905090565b600061072061120a565b600080858360200181815250508483604001906fffffffffffffffffffffffffffffffff191690816fffffffffffffffffffffffffffffffff19168152505061076886610de8565b91506000808373ffffffffffffffffffffffffffffffffffffffff1673ffffffffffffffffffffffffffffffffffffffff168152602001908152602001600020905060018160030180548060010182816107c29190611245565b9160005260206000209060030201600086909190915060008201518160000190805190602001906107f4929190611277565b506020820151816001015560408201518160020160006101000a8154816fffffffffffffffffffffffffffffffff0219169083700100000000000000000000000000000000900402179055505050505081935050505092915050565b60008061085c84610de8565b905060016000808373ffffffffffffffffffffffffffffffffffffffff1673ffffffffffffffffffffffffffffffffffffffff168152602001908152602001600020600301848154811015156108ae57fe5b906000526020600020906003020160000180548060010182816108d191906112c4565b91600052602060002090016000889091909150555050849150509392505050565b60008060008373ffffffffffffffffffffffffffffffffffffffff1673ffffffffffffffffffffffffffffffffffffffff168152602001908152602001600020600301805490509050919050565b600080600080600061095187610de8565b90506000808273ffffffffffffffffffffffffffffffffffffffff1673ffffffffffffffffffffffffffffffffffffffff168152602001908152602001600020600201868154811015156109a157fe5b9060005260206000209060040201600101546000808373ffffffffffffffffffffffffffffffffffffffff1673ffffffffffffffffffffffffffffffffffffffff16815260200190815260200160002060020187815481101515610a0157fe5b9060005260206000209060040201600201546000808473ffffffffffffffffffffffffffffffffffffffff1673ffffffffffffffffffffffffffffffffffffffff16815260200190815260200160002060020188815481101515610a6157fe5b9060005260206000209060040201600001546000808573ffffffffffffffffffffffffffffffffffffffff1673ffffffffffffffffffffffffffffffffffffffff16815260200190815260200160002060020189815481101515610ac157fe5b906000526020600020906004020160030160009054906101000a90047001000000000000000000000000000000000294509450945094505092959194509250565b60008060008373ffffffffffffffffffffffffffffffffffffffff1673ffffffffffffffffffffffffffffffffffffffff168152602001908152602001600020600201805490509050919050565b600181815481101515610b5f57fe5b90600052602060002090016000915054906101000a900473ffffffffffffffffffffffffffffffffffffffff1681565b60008060008060008573ffffffffffffffffffffffffffffffffffffffff1673ffffffffffffffffffffffffffffffffffffffff168152602001908152602001600020600001546000808673ffffffffffffffffffffffffffffffffffffffff1673ffffffffffffffffffffffffffffffffffffffff16815260200190815260200160002060010160009054906101000a900460ff166000808773ffffffffffffffffffffffffffffffffffffffff1673ffffffffffffffffffffffffffffffffffffffff16815260200190815260200160002060010160019054906101000a9004700100000000000000000000000000000000029250925092509193909250565b6000806000806000808773ffffffffffffffffffffffffffffffffffffffff1673ffffffffffffffffffffffffffffffffffffffff16815260200190815260200160002060030185815481101515610ce557fe5b90600052602060002090600302016000018054905090506000808773ffffffffffffffffffffffffffffffffffffffff1673ffffffffffffffffffffffffffffffffffffffff16815260200190815260200160002060030185815481101515610d4a57fe5b906000526020600020906003020160010154816000808973ffffffffffffffffffffffffffffffffffffffff1673ffffffffffffffffffffffffffffffffffffffff16815260200190815260200160002060030187815481101515610dab57fe5b906000526020600020906003020160020160009054906101000a900470010000000000000000000000000000000002935093509350509250925092565b6000806002600084815260200190815260200160002060009054906101000a900473ffffffffffffffffffffffffffffffffffffffff16905080915050919050565b60026020528060005260406000206000915054906101000a900473ffffffffffffffffffffffffffffffffffffffff1681565b6000806000808773ffffffffffffffffffffffffffffffffffffffff1673ffffffffffffffffffffffffffffffffffffffff1681526020019081526020016000209050848160000181905550838160010160006101000a81548160ff021916908315150217905550828160010160016101000a8154816fffffffffffffffffffffffffffffffff0219169083700100000000000000000000000000000000900402179055506001808054806001018281610f1791906112f0565b9160005260206000209001600089909190916101000a81548173ffffffffffffffffffffffffffffffffffffffff021916908373ffffffffffffffffffffffffffffffffffffffff16021790555050507f3f869c36ec9fa5a8e1611fce5888e7cf4407fb3487bbabca6c3f0564f0e915788585856040518084815260200183151515158152602001826fffffffffffffffffffffffffffffffff19166fffffffffffffffffffffffffffffffff19168152602001935050505060405180910390a185600260008360000154815260200190815260200160002060006101000a81548173ffffffffffffffffffffffffffffffffffffffff021916908373ffffffffffffffffffffffffffffffffffffffff16021790555085915050949350505050565b600061104461131c565b6000808683602001818152505085836040018181525050878360000181815250508483606001906fffffffffffffffffffffffffffffffff191690816fffffffffffffffffffffffffffffffff1916815250506110a086610de8565b91506000808373ffffffffffffffffffffffffffffffffffffffff1673ffffffffffffffffffffffffffffffffffffffff168152602001908152602001600020905060018160020180548060010182816110fa9190611358565b9160005260206000209060040201600086909190915060008201518160000155602082015181600101556040820151816002015560608201518160030160006101000a8154816fffffffffffffffffffffffffffffffff021916908370010000000000000000000000000000000090040217905550505050507fddef265ffd96d238ee9a1278372d106c01d02db01f7e3681b48b02cc5b4018b28888888860405180858152602001848152602001838152602001826fffffffffffffffffffffffffffffffff19166fffffffffffffffffffffffffffffffff1916815260200194505050505060405180910390a1819350505050949350505050565b602060405190810160405280600081525090565b60606040519081016040528061121e61138a565b81526020016000815260200160006fffffffffffffffffffffffffffffffff191681525090565b81548183558181151161127257600302816003028360005260206000209182019101611271919061139e565b5b505050565b8280548282559060005260206000209081019282156112b3579160200282015b828111156112b2578251825591602001919060010190611297565b5b5090506112c091906113f8565b5090565b8154818355818115116112eb578183600052602060002091820191016112ea91906113f8565b5b505050565b8154818355818115116113175781836000526020600020918201910161131691906113f8565b5b505050565b60806040519081016040528060008152602001600081526020016000815260200160006fffffffffffffffffffffffffffffffff191681525090565b81548183558181151161138557600402816004028360005260206000209182019101611384919061141d565b5b505050565b602060405190810160405280600081525090565b6113f591905b808211156113f157600080820160006113bd9190611477565b60018201600090556002820160006101000a8154906fffffffffffffffffffffffffffffffff0219169055506003016113a4565b5090565b90565b61141a91905b808211156114165760008160009055506001016113fe565b5090565b90565b61147491905b8082111561147057600080820160009055600182016000905560028201600090556003820160006101000a8154906fffffffffffffffffffffffffffffffff021916905550600401611423565b5090565b90565b508054600082559060005260206000209081019061149591906113f8565b505600a165627a7a72305820b65e689a85b745570c6735dd2689ee6c37d5095fe472dd6af1163008d7ddb6630029",
  "source": "pragma solidity ^0.4.17;\n\ncontract User {\n\n    \n    struct Person {\n        \n        uint aadhar_no; \n        bool isMigrant; \n        bytes16 name; \n        Feedback[] feedbacks;\n        //mapping(address => Feedback) feedbacks;\n        Complaint[] complaints;\n        \n    }\n\n    struct Feedback {\n        \n        uint rating; \n        uint sender_aadhar;  \n        uint receiver_aadhar;\n        bytes16 feedback_txt;\n        \n    }\n    \n    struct Complaint {\n        \n        uint[] verifiedByAadhar;\n        uint complaintByAadhar;\n        bytes16 complaint_txt;\n        \n    }\n\n\n    mapping (address => Person) persons;\n    address[] public userAccounts;\n    \n    mapping (uint => address) public aadharRecord;\n    \n    // Feedback[] public feedbacks;\n\n\n\n    event personInfo(\n       uint aadhar_no,\n       bool isMigrant,\n       bytes16 name\n    );\n\n    event feedBackInfo(\n       uint rating, \n        uint sender_aadhar,  \n        uint receiver_aadhar,\n        bytes16 feedback_txt\n    );\n\n    function setUser(address _address, uint _aadhar_no, bool _isMigrant, bytes16 _name) public returns (address) {\n        var person = persons[_address];\n        person.aadhar_no = _aadhar_no;\n        person.isMigrant = _isMigrant;\n        person.name = _name;\n        \n        userAccounts.push(_address) -1;\n        personInfo(_aadhar_no, _isMigrant, _name);\n        aadharRecord[person.aadhar_no] = _address;\n        return (_address);\n    }\n\n    function searchUserByAadhar(uint _aadhar) view public returns(address) {\n         address tempAddress = aadharRecord[_aadhar];\n         return (tempAddress);\n     }\n    \n    \n    function getUser(address _address) view public returns (uint,bool,bytes16) {\n        return (persons[_address].aadhar_no, persons[_address].isMigrant, persons[_address].name);\n    }\n    \n    // function searchUserByAadhar(uint _aadhar) view public returns(uint,bool,bytes16) {\n    //      address tempAddress = aadharRecord[_aadhar];\n    //      return getUser(tempAddress);\n    // }\n    \n    \n    function getUsers() view public returns(address[]) {\n        return userAccounts;\n    }\n\n\n    function setFeedback(uint _rating, uint _sender_aadhar, uint _receiver_aadhar, bytes16 _feedback) public returns (address) {\n\n\n        \n        Feedback memory feedback;\n        feedback.sender_aadhar = _sender_aadhar;\n        feedback.receiver_aadhar = _receiver_aadhar;\n        feedback.rating = _rating;\n        feedback.feedback_txt = _feedback;\n        \n        var receiverAddress = searchUserByAadhar(_receiver_aadhar);\n        var feedbackReceiver = persons[receiverAddress];\n        \n        feedbackReceiver.feedbacks.push(feedback) -1;\n        feedBackInfo(_rating, _sender_aadhar, _receiver_aadhar, _feedback);\n        \n        return receiverAddress;\n    }\n    \n    \n    function getUserFeedbackCount(address _address) public constant returns (uint) {\n        return(persons[_address].feedbacks.length);\n    }\n    \n    \n    function getUserFeedbackAtIndex(uint aadhar_no, uint feedbackKey) public constant returns(uint,uint,uint,bytes16)\n    {\n        var p_address = searchUserByAadhar(aadhar_no);\n        return(persons[p_address].feedbacks[feedbackKey].sender_aadhar,persons[p_address].feedbacks[feedbackKey].receiver_aadhar,persons[p_address].feedbacks[feedbackKey].rating,persons[p_address].feedbacks[feedbackKey].feedback_txt);\n    }\n    \n    \n    function setComplaint(uint _complaintByAadhar , bytes16 _complaint_txt) public returns (address) {\n\n\n        \n        Complaint memory complaint;\n        complaint.complaintByAadhar = _complaintByAadhar;\n        // complaint.verifiedByAadhar = _verifiedByAadhar;\n        \n        complaint.complaint_txt = _complaint_txt;\n        \n        var complaintAddress = searchUserByAadhar(_complaintByAadhar);\n        var complainter = persons[complaintAddress];\n        \n        complainter.complaints.push(complaint) -1;\n\n        \n        return complaintAddress;\n    }\n    \n    \n    function getComplaintCountByAddress(address _address) public constant returns (uint) {\n        return(persons[_address].complaints.length);\n    }\n    \n    \n    \n    function getUserComplaintAtIndex(address _address, uint complaintKey) public constant returns(uint,uint,bytes16)\n    {\n        var verifiedCount = persons[_address].complaints[complaintKey].verifiedByAadhar.length;\n        return(persons[_address].complaints[complaintKey].complaintByAadhar,verifiedCount,persons[_address].complaints[complaintKey].complaint_txt);\n    }\n\n    \n    function verifyComplaint(uint _verifier_aadhar,uint _complainter_aadhar, uint complaintKey) public constant returns(uint)\n    {\n        var complaintAddress = searchUserByAadhar(_complainter_aadhar);\n        persons[complaintAddress].complaints[complaintKey].verifiedByAadhar.push(_verifier_aadhar) -1;\n        return _verifier_aadhar;\n    }    \n    \n    \n\n}",
  "sourcePath": "/home/kishan/dev/truffle/migrant-labour-app/contracts/User.sol",
  "compiler": {
    "name": "solc",
    "version": "0.4.18+commit.9cf6e910.Emscripten.clang"
  },
  "schemaVersion": "1.0.1",
  "updatedAt": "2017-12-15T21:55:42.805Z"
}